:03000000020500F6
:03000300020541B2
:03000B0002058665
:1002000075A038C280C281D282516BC282516B7597
:10021000A00CC280C281D282516BC282516B75A088
:1002200001C280C281D282516BC282516B75A0061D
:10023000C280C281D282516BC282516B22F5A0C2B0
:1002400080C281D282516BC282516B22F5A0D280D2
:10025000C281D282516BC282516B516B22C0E0E4E9
:10026000936005514CA380F7D0E022C000C0017814
:100270000179FFD9FED8FAD001D00022C001D2D432
:10028000AB407C0A7DC879FFD9FEDDFADCF6DBF2F3
:10029000C2D4D00122AA53A854A955E654F0C412DE
:1002A00002AE09E6540F1202AE0908DAEE22C3FFCD
:0E02B000940A4005EF2437F722EF2430F7229E
:100500005100758909758811758C00758A007550C0
:100510000075510075520075530375545075556040
:1005200075A8837C0080FE202050554C53452057F1
:1005300049445448202000434F554E5420495320ED
:1005400000C28C858C51858A520CECB404267480D0
:10055000513D900527515D74C0513D900537515D67
:1005600012029578607A06E6514C081A70F97420E8
:10057000514C7C00755000755100755200758A0011
:0C058000758C00D28C32E55004F550322E
:00000001FF
