:0300000002090FE3
:0C090F00787FE4F6D8FD758120020956BF
:0C0AD80048656C6C6F00576F726C640016
:020AE400C1004F
:06099B00E4F5A0120A774A
:1009A10078087C007D007BFF7A0A79D87E007F067B
:1009B1001208D0780E7C007D007BFF7A0A79DE7EFA
:1009C100007F061208D07F80120AAC7B007A007982
:1009D100087D05120A267FC8120AAC7B007A0079CD
:1009E1000E7D05120A267F0C120AAC7F887E131237
:0209F1000A56A4
:0209F30080ACD6
:100A77007F647E001209FD7F38120AAC7F0E120ACE
:0B0A8700AC7F01120AAC7F80020AACB9
:100AAC008F14120A928514A0C2801209F5C2827F9B
:060ABC00057E000209FDA9
:100AC2008F18120A928518A0D2801209F5C2827F6D
:060AD200057E000209FD93
:100A26008B148A1589168D17D3E517940074809454
:100A360080401CAB14AA15A9161208F6FF120AC2AA
:100A460074012516F516E43515F515151780D92206
:100A920075A0FFC280D281C2821209F9D28230A728
:0A0AA20006C282D28280F7C28222CF
:0809F500C281D2827F057E0061
:1009FD00D3EF9400EE64809480401DE4FDEDFB3355
:100A0D0095E0FAC3EB9405EA6480948050030D8061
:080A1D00ECEF1F70DB1E80D816
:010A250022AE
:100A5600D3EF9400EE648094804015E4FCFD0DBD58
:100A660000010CBC01F8BD7EF5EF1F70E31E80E0AF
:010A7600225D
:10091B0002099BE493A3F8E493A34003F68001F24E
:10092B0008DFF48029E493A3F85407240CC8C333DD
:10093B00C4540F4420C8834004F456800146F6DFAC
:10094B00E4800B0102040810204080900AE4E47E4E
:10095B00019360BCA3FF543F30E509541FFEE493A1
:10096B00A360010ECF54C025E060A840B8E493A368
:10097B00FAE493A3F8E493A3C8C582C8CAC583CA93
:10098B00F0A3C8C582C8CAC583CADFE9DEE780BE4B
:010AE600000F
:10080000E709F608DFFA8046E709F208DFFA803EDA
:1008100088828C83E709F0A3DFFA8032E309F608C7
:10082000DFFA8078E309F208DFFA807088828C832F
:10083000E309F0A3DFFA806489828A83E0A3F608E3
:10084000DFFA805889828A83E0A3F208DFFA804CBD
:1008500080D280FA80C680D4806980F28033801094
:1008600080A680EA809A80A880DA80E280CA8033FD
:1008700089828A83ECFAE493A3C8C582C8CCC58375
:10088000CCF0A3C8C582C8CCC583CCDFE9DEE78045
:100890000D89828A83E493A3F608DFF9ECFAA9F0C4
:1008A000EDFB2289828A83ECFAE0A3C8C582C8CC1A
:1008B000C583CCF0A3C8C582C8CCC583CCDFEADE33
:1008C000E880DB89828A83E493A3F208DFF980CC95
:1008D00088F0EF60010E4E60C388F0ED2402B4048E
:1008E0000050B9F582EB2402B4040050AF23234535
:0608F00082239008507302
:1008F600BB010689828A83E0225002E722BBFE0200
:09090600E32289828A83E4932232
:00000001FF
