:03000000020311E7
:1002000075A00075900051A351A3512A51A351A389
:1002100051A37480516751A3900300518751A37477
:10022000C0516751A3787F51952275A038C280C212
:1002300081D28251A3C28251A375A00CC280C28117
:10024000D28251A3C28251A375A001C280C281D2C1
:100250008251A3C28251A375A006C280C281D282FC
:1002600051A3C28251A322F5A0C280C281D2825181
:10027000A3C28251A322F5A0D280C281D28251A30F
:10028000C28251A351A322C0E0E49360055176A33A
:1002900080F7D0E022C0E0E4E6600551760880F700
:1002A000D0E022C000C001780179FFD9FED8FAD091
:0402B00001D0002257
:1003000020204545203333372D4C61622034202096
:1003100000787F762008A642087648087649087655
:100320005308764808764D087641087620087644CA
:1003300008764508764408764808764908764108E4
:0A034000762008760012020080FE0D
:00000001FF
