:0300000002087B78
:0C087B00787FE4F6D8FD75810702086E56
:0D086E0012085F120887D29775994180FE2D
:0300230002084A86
:10084A00C0E0C0D0B297C2997441A2D0929BF599E8
:05085A00D0D0D0E03217
:0F085F00758920758DFD758DCCD28E4389202231
:080887004398C0D2ACD2AF22AD
:10080000D3EF9400EE64809480401DE4FDEDFB3353
:1008100095E0FAC3EB9405EA6480948050030D8060
:08082000ECEF1F70DB1E80D815
:0108280022AD
:10082900D3EF9400EE648094804015E4FCFD0DBD87
:1008390000010CBC01F8BD7EF5EF1F70E31E80E0DE
:01084900228C
:00000001FF
