:03000000020410E7
:03003B0002047B41
:1002000051BA51BA511751BA51BA51BA74805154B6
:1002100051BA787F51942275A038C280C281D282AF
:1002200051BAC28251BA75A00CC280C281D2825129
:10023000BAC28251BA75A001C280C281D28251BABB
:10024000C28251BA75A006C280C281D28251BAC29E
:100250008251BA22F5A0C280C281D28251BAC28232
:1002600051BA2251BA75A001C280C281D28251BA5C
:10027000C28251DC22F5A0D280C281D28251BAC2A0
:100280008251BA51BA22C0E0E49360055175A3804F
:10029000F7D0E022C0E07E00E4E6601B517508EE76
:1002A000B410087480515451BA7E00E6B40002784C
:1002B0007F1202CB0E80E1D0E022C000C0017801A5
:1002C00079FFD9FED8FAD001D00022D2D5AB407A3E
:1002D000C879FFD9FEDAFADBF6C2D5227A2879FF8F
:1002E000D9FEDAFA227B147AC879FFD9FEDAFADB72
:1002F000F6224B65792070726573736564206973AB
:020300002000DB
:10040000303132333435363738394142434445464A
:100410007590F075A880E5B14401F5B1759C0F7534
:100420009DF0754002787F76410876420876430851
:100430007644087645087646087647087648087672
:100440004908764A08764B08764C08764D08764E71
:1004500008764F0876500876510876520876530889
:1004600076540876550876560876570876580876F2
:100470005908765A08760008120200C000C001C070
:1004800002C003F507C00751DCE59054F0B4F00357
:100490000204F6516351BA748051549002F25186AD
:1004A0007590FEE59054F0B4F01E7590FDE5905403
:1004B000F0B4F01E7590FBE59054F0B4F01E75900A
:1004C000F7E59054F0B4F01EC4900400135021A33B
:1004D00080FAC4900404135017A380FAC49004084F
:1004E00013500DA380FAC490040C135003A380FA98
:1004F000E493517551E5759E00E59EB400F8516393
:10050000E474802E515451BAD007E507D003D002CD
:08051000D001D0007590F0321B
:00000001FF
