:03000000020901F1
:0C090100787FE4F6D8FD758110020948EB
:0E0B08004B657920507265737365643A000086
:030B280001104E6B
:070A1600120AC67F047E00F6
:100A1D00E4FDFCC3ED9FEC9E5015E4FBFA0BBB000F
:0F0A2D00010ABA01F8BB7EF50DBD00010C80E493
:010A3C002297
:100A6200120AF9120B20120A80120AB47F807E0049
:0E0A7200120AC67BFF7A0B7908120A3D80FE3D
:0300430002098D22
:10098D00C0E0C0F0C083C082C0D075D000C000C030
:0D099D0001C002C003C004C005C006C007B1
:1009AA001208008F0B759E007F8D7E00120AC6AF5B
:1009BA000B120AD87F0A7E00120A1DE510B45908E4
:0809CA00E50BA2D0929BF59908
:1009D200D007D006D005D004D003D002D001D00079
:0B09E200D0D0D082D083D0F0D0E03223
:100AB4007590F0759DF0759C0FE4F59E75B101D2AB
:020AC400AF225F
:10080000E4F50CF50DF9F50EF50FFDFCFE7590F015
:10081000E590F454F0C4540FFFAB05A803EF088033
:1008200002C313D8FC30E0048D0D800B0DBD000118
:100830000CED64044C70E275900FE590F4540FFFDA
:10084000E4FCFDAB05A803EF088002C313D8FC301D
:10085000E004A905800B0DBD00010CED64044C7093
:10086000E2E50D25E025E029F50E7590F0E590F420
:1008700054F0C4540FFFE4FCFDAB05A803EF08805F
:1008800002C313D8FC30E0048D0D800B0DBD0001B8
:100890000CED64044C70E275900FE590F4540FFF7A
:1008A000E4FCFDAB05A803EF088002C313D8FC30BD
:1008B000E004A905800B0DBD00010CED64044C7033
:1008C000E2E50D25E025E029F50FB50E01FE7430B7
:1008D0002EFEFDD39439748094804016ED944174BB
:1008E000809480500D74072EFE8007AF90EF64F067
:1008F00060057590F080F4E4F59EE59E70FCAF060F
:0109000022D4
:100AC600C280C281D2828FA07F0A7E00120A1DC216
:020AD60082227A
:100AD800D280C281D2828FA07F0A7E00120A1DC2F4
:020AE800822268
:100A3D008B088A09890AAB08AA09A90A120A9B60C0
:100A4D0013050AE50A7002050914F9120A9BFF1233
:050A5D000AD880E2222E
:100A80007F387E00120A167F06120A167F0C120AA1
:0B0A9000167F01120A167F80020AC6C2
:0A0B1600E4F5A0C282C280C2812271
:03002300020AEAE4
:0F0AEA00309903C29932309805859910C298321D
:0F0AF900758920758DFD758DCCD28E4389202295
:080B20004398D0D2ACD2AF2201
:1009ED00D3EF9400EE64809480401DE4FDEDFB3365
:1009FD0095E0FAC3EB9405EA6480948050030D8072
:080A0D00ECEF1F70DB1E80D826
:010A150022BE
:10090D00020A62E493A3F8E493A34003F68001F294
:10091D0008DFF48029E493A3F85407240CC8C333EB
:10092D00C4540F4420C8834004F456800146F6DFBA
:10093D00E4800B0102040810204080900B28E47E17
:10094D00019360BCA3FF543F30E509541FFEE493AF
:10095D00A360010ECF54C025E060A840B8E493A376
:10096D00FAE493A3F8E493A3C8C582C8CAC583CAA1
:10097D00F0A3C8C582C8CAC583CADFE9DEE780BE59
:010B2B0000C9
:100A9B00BB010689828A83E0225002E722BBFE0259
:090AAB00E32289828A83E493228C
:00000001FF
