:0300000002001EDD
:10001B0002024875891175900079817882774E7646
:10002B002079837884770D76907A42514CD2ABD27B
:10003B00AFD28E5168C2AFC28E758911759000799F
:10004B00817882774E762079837884770E76787AEA
:10005B0042514CD2ABD2AFD28E5168C2AFC28E7569
:10006B00891175900079817882774E762079837823
:10007B0084771076477A21514CD2ABD2AFD28E51C6
:10008B0068C2AFC28E7589117590007981788277BD
:10009B004E762079837884770E76787A42514CD2DB
:1000AB00ABD2AFD28E5168C2AFC28E75891175902B
:1000BB000079817882774E762079837884771176F0
:1000CB005C7A21514CD2ABD2AFD28E5168C2AFC247
:1000DB008E75891175900079817882774E762079AB
:1000EB00837884771076477A64514CD2ABD2AFD2F7
:1000FB008E5168C2AFC28E75891175900079817867
:10010B0082774E76207A21514CD2ABD2AFD28EEA87
:10011B0070FDC2AFC28E758911759000798178829E
:10012B00774E762079837884771576B47A21514C83
:10013B00D2ABD2AFD28E5168C2AFC28E7589117558
:0C014B00900079817882774E76207983CD
:100157007884771376887A21514CD2ABD2AFD28E7E
:100167005168C2AFC28E7589117590007981788206
:10017700774E762079837884771576B47A21514C37
:10018700D2ABD2AFD28E5168C2AFC28E758911750C
:10019700900079817882774E7620798378847710FA
:1001A70076477A42514CD2ABD2AFD28E5168C2AFAA
:1001B700C28E75900079817882774E762079837820
:1001C70084770E76787A21514CD2ABD2AFD28E514A
:1001D70068C2AFC28E75900079817882774E76209B
:1001E70079837884770D76057A42514CD2ABD2AFBA
:1001F700D28E5168C2AFC28E7590007981788277AE
:100207004E762079837884770C76357A21514CD2D3
:10021700ABD2AFD28E5168C2AFC28E7590007981D2
:100227007882774E762079837884770D76057A649D
:10023700514CD2ABD2AFD28E5168C2AFC28E020040
:100247001E1A514C327982C3E497F58BE479819772
:10025700F58D227984C3E497F58AE4798397F58C41
:1002670022C283120272EAB400F922120278B28320
:0802770022515AD28C308DFD9A
:05027F00C28CC28D22BB
:00000001FF
