:03000000020A5998
:0C0A5900787FE4F6D8FD75810F0209FDDE
:0E0A4B004B657920507265737365643A000044
:07097D00120A277F047E002F
:10098400E4FDFCC3ED9FEC9E5015E4FBFA0BBB00A9
:0F099400010ABA01F8BB7EF50DBD00010C80E42D
:0109A3002231
:1009FD001209C9120A157F807E00120A277BFF7A21
:080A0D000A794B1209A480FED6
:03004300020901AE
:10090100C0E0C0F0C083C082C0D075D000C000C0BC
:0D09110001C002C003C004C005C006C0073D
:10091E001208008F0B759E007F8D7E00120A27AF86
:0B092E000B120A397F0A7E00120984B8
:10093900D007D006D005D004D003D002D001D00012
:0B094900D0D0D082D083D0F0D0E032BC
:100A15007590F0759DF0759C0FE4F59E75B101D24A
:020A2500AF22FE
:10080000E4F50CF50DF9F50EF50FFDFCFE7590F015
:10081000E590F454F0C4540FFFAB05A803EF088033
:1008200002C313D8FC30E0048D0D800B0DBD000118
:100830000CED64044C70E275900FE590F4540FFFDA
:10084000E4FCFDAB05A803EF088002C313D8FC301D
:10085000E004A905800B0DBD00010CED64044C7093
:10086000E2E50D25E025E029F50E7590F0E590F420
:1008700054F0C4540FFFE4FCFDAB05A803EF08805F
:1008800002C313D8FC30E0048D0D800B0DBD0001B8
:100890000CED64044C70E275900FE590F4540FFF7A
:1008A000E4FCFDAB05A803EF088002C313D8FC30BD
:1008B000E004A905800B0DBD00010CED64044C7033
:1008C000E2E50D25E025E029F50FB50E01FE7430B7
:1008D0002EFEFDD39439748094804016ED944174BB
:1008E000809480500D74072EFE8007AF90EF64F067
:1008F00060057590F080F4E4F59EE59E70FCAF060F
:0109000022D4
:10095400D3EF9400EE64809480401DE4FDEDFB33FE
:1009640095E0FAC3EB9405EA6480948050030D800B
:08097400ECEF1F70DB1E80D8C0
:01097C002258
:100A2700C280C281D2828FA07F0A7E00120984C24F
:020A3700822219
:100A3900D280C281D2828FA07F0A7E00120984C22D
:020A4900822207
:1009A4008B088A09890AAB08AA09A90A1209E46012
:1009B40013050AE50A7002050914F91209E4FF1285
:0509C4000A3980E22267
:1009C9007F387E0012097D7F0612097D7F0C12098E
:0B09D9007D7F0112097D7F80020A274C
:0A0A6500E4F5A0C282C280C2812223
:1009E400BB010689828A83E0225002E722BBFE0211
:0909F400E32289828A83E4932244
:00000001FF
