:03000000020800F3
:0C080000787FE4F6D8FD75812C020847D3
:1008D3000108EF012ABE012C01010900012B0020B0
:1008E300200AEFBEF18CF2FEF3CEF529F63FF75066
:1008F300F7DFF7DFF750F63FF529F3CEF2FEF18C81
:02090300EFBE45
:05092B0012090680FE28
:10090600758911758BBE758DEF758A61758C3CD2B4
:08091600AFD2A9D2ABD28C22B2
:03001B0002091EB9
:0D091E00C28E852A8B85088DB2B6D28E322E
:03000B0002088C5C
:10088C00C0E0C0D075D000C000C28C758A61758C78
:10089C003C152CE52C7027E52B64207006C28CC20D
:1008AC008E801BB2B7740A252BF8E6F508740B255D
:1008BC002BF8E6F52A052B052B752C28D28ED28C1D
:0708CC00D000D0D0D0E032D3
:10080C0002092BE493A3F8E493A34003F68001F2CE
:10081C0008DFF48029E493A3F85407240CC8C333ED
:10082C00C4540F4420C8834004F456800146F6DFBC
:10083C00E4800B01020408102040809008D3E47E71
:10084C00019360BCA3FF543F30E509541FFEE493B1
:10085C00A360010ECF54C025E060A840B8E493A378
:10086C00FAE493A3F8E493A3C8C582C8CAC583CAA3
:10087C00F0A3C8C582C8CAC583CADFE9DEE780BE5B
:0109050000F1
:00000001FF
