:03000000020800F3
:0C080000787FE4F6D8FD758120020847DF
:0208E100C10054
:10088C001208A9C294D295C29575C5083000FDC254
:0D089C0000E4F5C53000FDC200D29480E6F6
:1008A900D294D29543C32043C30143C31043C30821
:0C08B90053C3FB43B104D2AF43C3402241
:03004B000208C5E3
:1008C500C0E0C0D075D000C007AFC4EF248070056C
:0C08D500D20085C508D007D0D0D0E0329A
:10080C0002088CE493A3F8E493A34003F68001F26E
:10081C0008DFF48029E493A3F85407240CC8C333ED
:10082C00C4540F4420C8834004F456800146F6DFBC
:10083C00E4800B01020408102040809008E1E47E63
:10084C00019360BCA3FF543F30E509541FFEE493B1
:10085C00A360010ECF54C025E060A840B8E493A378
:10086C00FAE493A3F8E493A3C8C582C8CAC583CAA3
:10087C00F0A3C8C582C8CAC583CADFE9DEE780BE5B
:0108E3000014
:00000001FF
