:03000000020B40B0
:0C0B4000787FE4F6D8FD75813F020B873A
:020C1E00C10013
:100BCC00E4F533F532F531F530F53BF53AF539F519
:100BDC0038F53FF53EF53DF53CF537F536753520E6
:0E0BEC00753440120BFA120C08120C1180FE28
:03000B00020A489E
:100A4800C0E0C0F0C083C082C0D075D000C000C074
:100A580001C002C003C004C005C006C007B2B77514
:100A68008CCF758A2B7FAC7EC57D477C3EAB37AA81
:100A780036A935A8341208F8C004C005C006C00756
:100A88007F667E147D7B7C3FAB33AA32A931A830C8
:100A98001208F8D003D002D001D0001208078F3B0B
:100AA8008E3A8D398C387FAC7EC57D477C3EAB3322
:100AB800AA32A931A8301208F8C004C005C006C07F
:100AC800077F667E147D7B7C3FAB37AA36A935A8A5
:100AD800341208F8D003D002D001D0001208038FD6
:100AE8003F8E3E8D3D8C3C853B33853A328539318E
:100AF8008538308F378E368D358C34E4FFFE7D2077
:100B08007C40AB33AA32A931A8301208078F2F8E48
:100B18002E8D2D8C2C8F248E238D228C21D007D0C6
:100B280006D005D004D003D002D001D000D0D0D058
:080B380082D083D0F0D0E0323E
:0E0BFA00438901758CCF758A2BD28CD2A9222B
:03002300020C19B3
:050C1900C299D2003277
:090C0800438920758DCCC28E22B7
:080C11004398C0D2ACD2AF221F
:10080000020A33E86480F8E933E83360110460F0E9
:10081000ED33EC337009E8FCE9FDEAFEEBFF22045E
:1008200060DED3EB9FEA9EE99DE8C2E78CF0C2F759
:1008300095F0400CE8CCF8E9CDF9EACEFAEBCFFB25
:100840001209FE85D0F05804700320D5B3E8047077
:10085000075002B2D5020A3D92D5EC0460F7E4CC11
:10086000C0E0C398F8603B94186008400DD0E0FBEE
:10087000020A15E4FBFAC9FC8028E830E406E4C962
:10088000FBE4CAFCE830E305E4C9CACBFCE8540742
:100890006010F8C3E913F9EA13FAEB13FBEC13FC4D
:1008A000D8F130F52FC3E49CFCEF9BFFEE9AFEEDF0
:1008B00099FDD0E0FBEF4E4D4C701222DB03020A93
:1008C0003AEC2CFCEF33FFEE33FEED33FDED30E779
:1008D000EB020A15EF2BFFEE3AFEED39FDD0E0FBFF
:1008E00050130BBB0003020A3DED13FDEE13FEEFA8
:0808F00013FFEC13FC020A15D2
:1008F800EC4D6011E8497017ED33EC3304600DE4FA
:10090800FCFFFEFD22E933E8330470F8020A3312D3
:1009180009FE58046009E4CC2481500628500902D5
:100928000A3D284003020A3AC0E0EB4A7044B98005
:1009380006D0E0FB020A29EF4E701CBD8008EBFFD1
:10094800EAFEE9FD80EBE98DF0A4FEE5F00209E19D
:10095800E9CDF9EAFEEBFFEF89F0A4FCE5F0CE89DA
:10096800F0A42EFFE435F0CD89F0A42DFEE435F097
:100978008067EF4E7005BD80D780C3EF8BF0A4ACC5
:10098800F0EE8BF0A42CFCE435F0F8EF8AF0A42C00
:10099800E5F038FCE433CB8DF0A42CFCE5F03BF813
:1009A800EE8AF0A42CFCE5F038F8E433CF89F0A403
:1009B8002CFCE5F038CF3400CE89F0A42FFFE5F009
:1009C8003EFEE433C98DF0A42EFEE5F039CD8AF061
:1009D800A42FFFE5F03EFEE43DFD33D0E0FB5007D9
:1009E8000BBB000F020A3DEC2CFCEF33FFEE33FE8D
:0609F800ED33FD020A15BB
:1009FE00E9D2E7C933E833F892D5EDD2E7CD33EC3F
:070A0E0033FC5002B2D522B7
:100A1500EC30E7100FBF000C0EBE00080DBD000442
:100A25000BEB6014A2D5EB13FCED92E7FD2274FFEE
:100A3500FCFDFEFF22E480F8A2D574FF13FC7D8047
:030A4500E480EF5B
:100B4C00020BCCE493A3F8E493A34003F68001F2E8
:100B5C0008DFF48029E493A3F85407240CC8C333AA
:100B6C00C4540F4420C8834004F456800146F6DF79
:100B7C00E4800B0102040810204080900C1EE47EDF
:100B8C00019360BCA3FF543F30E509541FFEE4936E
:100B9C00A360010ECF54C025E060A840B8E493A335
:100BAC00FAE493A3F8E493A3C8C582C8CAC583CA60
:100BBC00F0A3C8C582C8CAC583CADFE9DEE780BE18
:010C200000D3
:00000001FF
