:0300000002036C8C
:1002000075A038C280C281D282513DC282513D75F3
:10021000A00CC280C281D282513DC282513D75A0E4
:1002200001C280C281D282513DC282513D75A00679
:10023000C280C281D282513DC282513D22C000C0E3
:1002400001780179FFD9FED8FAD001D00022F5A0BB
:10025000C280C281D282513DC282513D22F5A0D2DC
:1002600080C281D282513DC282513D513D22C001A6
:10027000C003D2D5AB407C0A7DC879FFD9FEDDFA38
:10028000DCF6DBF2C2D5D003D00122AA50A851E699
:1002900054F0C41202A81202BCE6540F1202A812B3
:1002A00002BC1202C2DAE622C3FB940A4007EB2426
:1002B00037A952F722EB2430A952F722E55204F570
:1002C0005222E55104F5512275A001C280C281D2AB
:1002D00082513DC28275900FE590FB12026E7590BF
:1002E0000FE590B503EFC454F0F922895175501011
:1002F00075521012028B78107A047480514EE612F7
:10030000025D513D08E612025D513D7420515D08C9
:0F031000DAEC7A0474C0514EE612025D513D08DA
:10031F00E612025D513D7420515D08DAEC75400A1A
:10032F00516E51C87480514E7A04E612025D513DF0
:10033F0008E612025D513D7420515D08DAEC7A0433
:10034F0074C0514EE612025D513D08E612025D5136
:10035F003D7420515D08DAEC516E51C82251007581
:10036F004004757010757111757212757313757471
:10037F00147575157576167577177578187579194B
:10038F00757A1A757B1B757C1C757D1D757E1E75A8
:0A039F007F1F1202D51202EB80F856
:00000001FF
