:03000000020351A7
:1002000075A038C280C281D2825179C2825179757B
:10021000A00CC280C281D2825179C282517975A06C
:1002200001C280C281D2825179C282517975A00601
:10023000C280C281D2825179C282517922F5A0C294
:1002400080C281D2825179C282517922F5A0D280B6
:10025000C281D2825179C2825179517922C0E0E4BF
:10026000936005514CA380F7D0E022C0E0E4E66043
:1002700005514C0880F7D0E022C000C00178017918
:10028000FFD9FED8FAD001D00022C001D2D4AB40B1
:100290007C0A7DC879FFD9FEDDFADCF6DBF2C2D438
:1002A000D00122E590540FF7C4440FF59022E54E9B
:1002B000C4254FF622C001A95475400A7590FF125B
:1002C000028A75900F75400212028A1202A37540CD
:1002D0000A12028AE590540FB40FDAD00122A85115
:1002E000AA5075544E1202B575544F1202B512023F
:1002F000AE08DAEEAA50A85122AA50A851A952E697
:1003000054F0C412031209E6540F1203120908DA5A
:0D031000EE22C3FB940A4005EB2437F722D0
:10031D00EB2430F72275900FAA90A8510A748051E2
:10032D003DE60808DAFB12024C517918E612024C30
:10033D0012028A75A001C280C281D2825179C28215
:10034D0012028A2275A000759000755160755001DA
:10035D001202DE75400475500175516075526312BD
:10036D0002F975516375500175900FE59053900F1B
:10037D00C395506007500512032280EC1202005104
:03038D007980E58F
:00000001FF
