:030000000208BB38
:0C08BB00787FE4F6D8FD75815002090238
:100947000122EF0144BEC100C104C181C102C1033C
:10095700014E01012300014700202024EFBEF18C46
:10096700F2FEF3CEF529F63FF750F7DFF7DFF75042
:10097700F63FF529F3CEF2FEF18CEFBE02450000FB
:10098700024F000002480000024A0001024C009694
:1009C100120A21120A59C2B4D2B5C2B5E545F5C51C
:1009D1003000FDC2008546C53000FDC200D2B480A2
:0109E100E530
:100A5900758911758BBE758DEF758AA2758C3FD21C
:080A6900AFD2A9D2ABD28C225E
:100A2100D2B4D2B543C32043C30143C31043C30867
:0C0A310053C3FB43B104D2AF43C34022C7
:03004B00020A3D69
:100A3D00C0E0C0D075D000C007AFC4EF24807005F2
:0C0A4D00D20085C521D007D0D0D0E03207
:1009E200D3EF9400EE648094804015E4FCFD0DBDCD
:1009F20000010CBC01F8BD7EF5EF1F70E31E80E024
:010A020022D1
:10099800D3EF9400EE64809480401DE4FDEDFB33BA
:1009A80095E0FAC3EB9405EA6480948050030D80C7
:0809B800ECEF1F70DB1E80D87C
:0109C0002214
:03001B00020A03D3
:100A0300C28E85448B85228DB204300408854F4500
:0E0A13008550468006754500754600D28E322D
:03000B00020800E8
:10080000C0E0C0D075D000C000C28C758AA2758CC3
:100810003F154EE54E7027E54764207006C28CC236
:100820008E801BB2B774242547F8E6F5227425257F
:1008300047F8E6F54405470547754EFAD28EE54977
:10084000643145487008C201D202F548F549E54BCC
:100850006432454A7009C202D203F54A754B01E57C
:100860004D6401454C7009C203D201F54C754D969B
:1008700030011574512550F550E4354FF54F0549B9
:10088000E549702E0548802A300210754F0F7550CB
:10089000FF054BE54B701B054A801730031474E5C8
:1008A0002550F55074FF354FF54FE54D154D70024D
:0B08B000154CD28CD000D0D0D0E0322C
:1008C7000209C1E493A3F8E493A34003F68001F27D
:1008D70008DFF48029E493A3F85407240CC8C33332
:1008E700C4540F4420C8834004F456800146F6DF01
:1008F700E4800B0102040810204080900947E47E41
:10090700019360BCA3FF543F30E509541FFEE493F5
:10091700A360010ECF54C025E060A840B8E493A3BC
:10092700FAE493A3F8E493A3C8C582C8CAC583CAE7
:10093700F0A3C8C582C8CAC583CADFE9DEE780BE9F
:01099700005F
:00000001FF
