:03000000020F33B9
:0C0F3300787FE4F6D8FD75814F020F7A3C
:0D112B0044697374616E63653A00636D0082
:100FBF00C100C101C102043500000000044C000053
:100FCF000000043900000000042200000000042685
:100FDF0000000000043F00000000042A0000000091
:0F0FEF00012E00014300013D00044800000000F6
:100E9B0078087C007D007BFF7A11792B7E007F0A1E
:100EAB00120C2D78127C007D007BFF7A1179357E38
:100EBB00007F03120C2DD2944390201210DC1210E1
:100ECB00C112111D7F327E001210847F801210F62A
:100EDB007B007A0079087D091210307F8D1210F695
:100EEB007B007A0079127D02121030C294E4F5C5B2
:100EFB003000FD85212FC200E4F5C53000FD8521B2
:100F0B003EC200D294E52F75F004A4FFE53EC41356
:100F1B001354037C002FFFEC35F0FE3395E08F2547
:080F2B008E24F523F52280C39A
:03004B000210A5FB
:1010A500C0E0C0D075D000C007AFC4EF2480700584
:0C10B50085C521D200D007D0D0D0E03299
:03000B00020D489B
:100D4800C0E0C0F0C083C082C0D075D000C000C071
:100D580001C002C003C004C005C006C007758CB13D
:100D6800758ADFA28DE433F530052EE5382525F5A3
:100D780038E5373524F537E5363523F536E53535A5
:100D880022F535E52E640A6003020E80AF2EAB070C
:100D9800FAF9F8AF38AE37AD36AC35120CA88F4239
:100DA8008E418D408C3FE4120A9E7B997AA9794E38
:100DB80078401208F8120ADC8F2D8E2C8D2B8C2A85
:100DC800E4120A9E7B297ADC79FB78C21208F8E4DF
:100DD800FBFA797A7844120A017B1F7A85794C7874
:100DE80043120807120ADC8F2D8E2C8D2B8C2A7F3C
:100DF800891210F6E47BE87A03F9F8AF2DAE2CAD32
:100E08002BAC2A121064AF2DAE2CAD2BAC2AE47B90
:100E1800E87A03F9F8120CA8AC00AD01AE02AF03F2
:100E28008F2D8E2C8D2B8C2A7B64121060AF2DAEEB
:100E38002CAD2BAC2AE47B64FAF9F8120CA8AC00B0
:100E4800AD01AE02AF038F2D8E2C8D2B8C2A7B0A21
:100E5800121060E47B0AFAF9F8AF2DAE2CAD2BAC7A
:100E68002A120CA8AF03121067752E00753800758A
:100E78003700753600753500D007D006D005D00488
:100E8800D003D002D001D000D0D0D082D083D0F00F
:030E9800D0E03275
:1010DC00D29443C32043C30143C31053C3F753C338
:0A10EC00FB43B104D2AF43C340221E
:0E111D00758CB1758ADF758901D2A9D28C223A
:1010C1007F647E001210077F381210F67F0C121019
:0B10D100F67F011210F67F800210F67F
:1010F6008F1A12110C851AA0C280120FFFC2827FAE
:06110600057E0002100747
:0E106000E4FAF9F8120CA88F3DE53D2430FFAC
:10106E008F1A12110C851AA0D280120FFFC2827F26
:06107E00057E00021007D0
:101030008B158A1689178D18D3E51894007480943F
:1010400080401CAB15AA16A917120C53FF12106E84
:1010500074012517F517E43516F516151880D922F1
:10110C0075A0FFC280D281C282121003D282C28229
:01111C0022B0
:080FFF00C281D2827F057E0051
:10100700D3EF9400EE64809480401DE4FDEDFB3344
:1010170095E0FAC3EB9405EA6480948050030D8051
:08102700ECEF1F70DB1E80D806
:01102F00229E
:10108400D3EF9400EE648094804015E4FCFD0DBD24
:1010940000010CBC01F8BD7EF5EF1F70E31E80E07B
:0110A4002229
:10080000020B48E86480F8E933E83360110460F0D3
:10081000ED33EC337009E8FCE9FDEAFEEBFF22045E
:1008200060DED3EB9FEA9EE99DE8C2E78CF0C2F759
:1008300095F0400CE8CCF8E9CDF9EACEFAEBCFFB25
:10084000120B1385D0F05804700320D5B3E8047060
:10085000075002B2D5020B5292D5EC0460F7E4CCFB
:10086000C0E0C398F8603B94186008400DD0E0FBEE
:10087000020B2AE4FBFAC9FC8028E830E406E4C94C
:10088000FBE4CAFCE830E305E4C9CACBFCE8540742
:100890006010F8C3E913F9EA13FAEB13FBEC13FC4D
:1008A000D8F130F52FC3E49CFCEF9BFFEE9AFEEDF0
:1008B00099FDD0E0FBEF4E4D4C701222DB03020B92
:1008C0004FEC2CFCEF33FFEE33FEED33FDED30E764
:1008D000EB020B2AEF2BFFEE3AFEED39FDD0E0FBE9
:1008E00050130BBB0003020B52ED13FDEE13FEEF92
:0808F00013FFEC13FC020B2ABC
:1008F800EC4D6011E8497017ED33EC3304600DE4FA
:10090800FCFFFEFD22E933E8330470F8020B4812BD
:100918000B1358046009E4CC2481500628500902BE
:100928000B52284003020B4FC0E0EB4A7044B980D9
:1009380006D0E0FB020B3EEF4E701CBD8008EBFFBB
:10094800EAFEE9FD80EBE98DF0A4FEE5F00209E19D
:10095800E9CDF9EAFEEBFFEF89F0A4FCE5F0CE89DA
:10096800F0A42EFFE435F0CD89F0A42DFEE435F097
:100978008067EF4E7005BD80D780C3EF8BF0A4ACC5
:10098800F0EE8BF0A42CFCE435F0F8EF8AF0A42C00
:10099800E5F038FCE433CB8DF0A42CFCE5F03BF813
:1009A800EE8AF0A42CFCE5F038F8E433CF89F0A403
:1009B8002CFCE5F038CF3400CE89F0A42FFFE5F009
:1009C8003EFEE433C98DF0A42EFEE5F039CD8AF061
:1009D800A42FFFE5F03EFEE43DFD33D0E0FB5007D9
:1009E8000BBB000F020B52EC2CFCEF33FFEE33FE77
:0609F800ED33FD020B2AA5
:1009FE00020B52EC5D046005E859047003020B48CB
:100A0E00120B13580460F6EC4860F2EC7004FDFE15
:100A1E00FF22C860DB2481C85009C39860025006CB
:100A2E00020B4F9850CAF582E9294B4A7005AB82EA
:100A3E00020B3E75F0007C1A7880C3EF9BEE9AEDA8
:100A4E0099400DC3EF9BFFEE9AFEED99FDE842F043
:100A5E00DC23ACF0D0E0FFD0E0FED0E0FDAB822096
:100A6E00E7101BEB60BAEC2CFCEF33FFEE33FEED20
:100A7E0033FD020B2AE803F830E705C0F075F000ED
:100A8E00EF2FFFEE33FEED33FD40B830E7C280AA04
:100A9E0075F020800E75F010800575F0087D007ED3
:100AAE00007F003392D530D503120D3AEC3340104F
:100ABE00EF33FFEE33FEED33FDEC33FCD5F0ED22DC
:0E0ACE00E5F0247EA2D513CC92E7CDCEFF2218
:100ADC00EDD2E7CD33EC3392D524814006E4FFFE12
:100AEC00FDFC22FCE4CFCECDCC24E0501174FF8071
:100AFC00EDC3CC13CCCD13CDCE13CECF13CF04700E
:070B0C00F030D5DE020D3AC6
:100B1300E9D2E7C933E833F892D5EDD2E7CD33EC28
:070B230033FC5002B2D522A1
:100B2A00EC30E7100FBF000C0EBE00080DBD00042C
:100B3A000BEB6014A2D5EB13FCED92E7FD2274FFD8
:100B4A00FCFDFEFF22E480F8A2D574FF13FC7D8031
:030B5A00E480EF45
:100F3F00020E9BE493A3F8E493A34003F68001F21F
:100F4F0008DFF48029E493A3F85407240CC8C333B3
:100F5F00C4540F4420C8834004F456800146F6DF82
:100F6F00E4800B0102040810204080900FBFE47E44
:100F7F00019360BCA3FF543F30E509541FFEE49377
:100F8F00A360010ECF54C025E060A840B8E493A33E
:100F9F00FAE493A3F8E493A3C8C582C8CAC583CA69
:100FAF00F0A3C8C582C8CAC583CADFE9DEE780BE21
:010FFE0000F2
:100B5D00E709F608DFFA8046E709F208DFFA803E7A
:100B6D0088828C83E709F0A3DFFA8032E309F60867
:100B7D00DFFA8078E309F208DFFA807088828C83CF
:100B8D00E309F0A3DFFA806489828A83E0A3F60883
:100B9D00DFFA805889828A83E0A3F208DFFA804C5D
:100BAD0080D280FA80C680D4806980F28033801034
:100BBD0080A680EA809A80A880DA80E280CA80339D
:100BCD0089828A83ECFAE493A3C8C582C8CCC58315
:100BDD00CCF0A3C8C582C8CCC583CCDFE9DEE780E5
:100BED000D89828A83E493A3F608DFF9ECFAA9F064
:100BFD00EDFB2289828A83ECFAE0A3C8C582C8CCBA
:100C0D00C583CCF0A3C8C582C8CCC583CCDFEADED2
:100C1D00E880DB89828A83E493A3F208DFF980CC34
:100C2D0088F0EF60010E4E60C388F0ED2402B4042D
:100C3D000050B9F582EB2402B4040050AF232345D4
:060C4D008223900BAD7341
:100C5300BB010689828A83E0225002E722BBFE029F
:090C6300E32289828A83E49322D2
:100C6C0075F008758200EF2FFFEE33FECD33CDCC3F
:100C7C0033CCC58233C5829BED9AEC99E5829840C2
:100C8C000CF582EE9BFEED9AFDEC99FC0FD5F0D69F
:100C9C00E4CEFBE4CDFAE4CCF9A88222B800C1B9C9
:100CAC000059BA002DEC8BF084CFCECDFCE5F0CB07
:100CBC00F97818EF2FFFEE33FEED33FDEC33FCEB40
:100CCC0033FB10D703994004EB99FB0FD8E5E4F9FB
:100CDC00FA227818EF2FFFEE33FEED33FDEC33FCE8
:100CEC00C933C910D7059BE99A4007EC9BFCE99ADC
:100CFC00F90FD8E0E4C9FAE4CCFB2275F010EF2F21
:100D0C00FFEE33FEED33FDCC33CCC833C810D70720
:100D1C009BEC9AE899400AED9BFDEC9AFCE899F85B
:0E0D2C000FD5F0DAE4CDFBE4CCFAE4C8F922EE
:0E0D3A00C3E49FFFE49EFEE49DFDE49CFC22CA
:00000001FF
