:030000000203797F
:1002000075A038C280C281D2825179C2825179757B
:10021000A00CC280C281D2825179C282517975A06C
:1002200001C280C281D2825179C282517975A00601
:10023000C280C281D2825179C282517922F5A0C294
:1002400080C281D2825179C282517922F5A0D280B6
:10025000C281D2825179C2825179517922C0E0E4BF
:10026000936005514CA380F7D0E022C0E0E4E66043
:1002700005514C0880F7D0E022C000C00178017918
:10028000FFD9FED8FAD001D00022C001D2D5AB40B0
:100290007C0A7DC879FFD9FEDDFADCF6DBF2C2D537
:1002A000D00122E590540FF7C4440FF59022E54E9B
:1002B000C4254FF622C001A95475400A7590FF125B
:1002C000028A75900F75400212028A1202A37540CD
:1002D0000A12028AE590540FB40FDAD00122A85115
:1002E000AA5075544E1202B575544F1202B512023F
:1002F000AE08DAEEAA50A85122AA50A851E654F04E
:10030000C412031612032AE6540F12031612032A0C
:10031000120330DAE622C3FB940A4007EB2437A924
:0303200052F7226F
:10032300EB2430A952F722E55204F55222E5510499
:10033300F5512275900FAA90A8510A7480513DE699
:100343000808DAFB12024C517918E612024C120229
:100353008A75A001C280C281D2825179C2821202FF
:100363008A22A851A952AA501AE60866F709DAF9AF
:10037300E6A85166F72275A0007590007551607567
:1003830050021202DE7550027551607552701203ED
:10039300657540047550027551707552431202F928
:1003A30075514375500275900FE59053900FC395A7
:1003B300506007500512033680EC12020051798019
:0103C300E554
:00000001FF
